{
  "_format": "hh-sol-artifact-1",
  "contractName": "WavePortal",
  "sourceName": "contracts/WavePortal.sol",
  "abi": [
    {
      "inputs": [],
      "stateMutability": "nonpayable",
      "type": "constructor"
    },
    {
      "inputs": [],
      "name": "getTotalWaves",
      "outputs": [
        {
          "internalType": "uint256",
          "name": "",
          "type": "uint256"
        }
      ],
      "stateMutability": "view",
      "type": "function"
    },
    {
      "inputs": [
        {
          "internalType": "int256",
          "name": "a",
          "type": "int256"
        }
      ],
      "name": "messages",
      "outputs": [],
      "stateMutability": "nonpayable",
      "type": "function"
    },
    {
      "inputs": [],
      "name": "wave",
      "outputs": [],
      "stateMutability": "nonpayable",
      "type": "function"
    }
  ],
  "bytecode": "0x608060405234801561001057600080fd5b5061003c604051806060016040528060278152602001610a396027913961004160201b6102681760201c565b6101c4565b6100dd816040516024016100559190610142565b6040516020818303038152906040527f41304fac000000000000000000000000000000000000000000000000000000007bffffffffffffffffffffffffffffffffffffffffffffffffffffffff19166020820180517bffffffffffffffffffffffffffffffffffffffffffffffffffffffff83818316178352505050506100e060201b60201c565b50565b60008151905060006a636f6e736f6c652e6c6f679050602083016000808483855afa5050505050565b600061011482610164565b61011e818561016f565b935061012e818560208601610180565b610137816101b3565b840191505092915050565b6000602082019050818103600083015261015c8184610109565b905092915050565b600081519050919050565b600082825260208201905092915050565b60005b8381101561019e578082015181840152602081019050610183565b838111156101ad576000848401525b50505050565b6000601f19601f8301169050919050565b610866806101d36000396000f3fe608060405234801561001057600080fd5b50600436106100415760003560e01c80636fe15b44146100465780639a2cdc0814610050578063b69b03f51461006e575b600080fd5b61004e61008a565b005b6100586100e4565b6040516100659190610656565b60405180910390f35b61008860048036038101906100839190610516565b61012f565b005b600160008082825461009c919061068d565b925050819055506100e26040518060400160405280600d81526020017f257320686173207761766564210000000000000000000000000000000000000081525033610301565b565b60006101276040518060400160405280601981526020017f5765206861766520256420746f74616c20776176657321200a0000000000000081525060005461039d565b600054905090565b60008054905060005b8281121561016c576001600080828254610152919061068d565b92505081905550808061016490610790565b915050610138565b5060018160005461017d91906106e3565b14156101c7576101c26040518060400160405280601781526020017f2573206120656e766f7965722031206d6573736167652e00000000000000000081525033610301565b610264565b6001816000546101d791906106e3565b11156102245761021f6040518060400160405280601981526020017f2573206120656e766f796572202564206d657373616765732e0000000000000081525033600054610439565b610263565b6102626040518060400160405280600e81526020017f417563756e206d6573736167652e000000000000000000000000000000000000815250610268565b5b5b5050565b6102fe8160405160240161027c9190610596565b6040516020818303038152906040527f41304fac000000000000000000000000000000000000000000000000000000007bffffffffffffffffffffffffffffffffffffffffffffffffffffffff19166020820180517bffffffffffffffffffffffffffffffffffffffffffffffffffffffff83818316178352505050506104d8565b50565b61039982826040516024016103179291906105b8565b6040516020818303038152906040527f319af333000000000000000000000000000000000000000000000000000000007bffffffffffffffffffffffffffffffffffffffffffffffffffffffff19166020820180517bffffffffffffffffffffffffffffffffffffffffffffffffffffffff83818316178352505050506104d8565b5050565b61043582826040516024016103b3929190610626565b6040516020818303038152906040527f9710a9d0000000000000000000000000000000000000000000000000000000007bffffffffffffffffffffffffffffffffffffffffffffffffffffffff19166020820180517bffffffffffffffffffffffffffffffffffffffffffffffffffffffff83818316178352505050506104d8565b5050565b6104d3838383604051602401610451939291906105e8565b6040516020818303038152906040527f07c81217000000000000000000000000000000000000000000000000000000007bffffffffffffffffffffffffffffffffffffffffffffffffffffffff19166020820180517bffffffffffffffffffffffffffffffffffffffffffffffffffffffff83818316178352505050506104d8565b505050565b60008151905060006a636f6e736f6c652e6c6f679050602083016000808483855afa5050505050565b60008135905061051081610819565b92915050565b60006020828403121561052857600080fd5b600061053684828501610501565b91505092915050565b61054881610717565b82525050565b600061055982610671565b610563818561067c565b935061057381856020860161075d565b61057c81610808565b840191505092915050565b61059081610753565b82525050565b600060208201905081810360008301526105b0818461054e565b905092915050565b600060408201905081810360008301526105d2818561054e565b90506105e1602083018461053f565b9392505050565b60006060820190508181036000830152610602818661054e565b9050610611602083018561053f565b61061e6040830184610587565b949350505050565b60006040820190508181036000830152610640818561054e565b905061064f6020830184610587565b9392505050565b600060208201905061066b6000830184610587565b92915050565b600081519050919050565b600082825260208201905092915050565b600061069882610753565b91506106a383610753565b9250827fffffffffffffffffffffffffffffffffffffffffffffffffffffffffffffffff038211156106d8576106d76107d9565b5b828201905092915050565b60006106ee82610753565b91506106f983610753565b92508282101561070c5761070b6107d9565b5b828203905092915050565b600061072282610733565b9050919050565b6000819050919050565b600073ffffffffffffffffffffffffffffffffffffffff82169050919050565b6000819050919050565b60005b8381101561077b578082015181840152602081019050610760565b8381111561078a576000848401525b50505050565b600061079b82610729565b91507f7fffffffffffffffffffffffffffffffffffffffffffffffffffffffffffffff8214156107ce576107cd6107d9565b5b600182019050919050565b7f4e487b7100000000000000000000000000000000000000000000000000000000600052601160045260246000fd5b6000601f19601f8301169050919050565b61082281610729565b811461082d57600080fd5b5056fea2646970667358221220574c231d77632b023f8f992f28b1db625f0bd56398ea766e1b4a8922210123a764736f6c634300080000334d6f6e207072656d69657220736d61727420636f6e74726163742073757220457468657265756d",
  "linkReferences": {},
  "deployedLinkReferences": {}
}